:020000041000EA
:1000000000B5324B212058609868022188439860DF
:10001000D860186158612E4B002199600221596106
:100020000121F02299502B49196001219960352056
:1000300000F044F80222904214D00621196600F024
:1000400034F8196E01211966002018661A6600F04E
:100050002CF8196E196E196E052000F02FF8012189
:100060000842F9D1002199601B49196000215960AB
:100070001A491B48016001219960EB211966A021F2
:10008000196600F012F800219960164914480160C1
:100090000121996001BC002800D000471248134993
:1000A000086003C880F30888084703B5996A0420EC
:1000B0000142FBD001200142F8D103BD02B5186610
:1000C0001866FFF7F2FF186E186E02BD00000240BE
:1000D000000000180000070000035F00212200005C
:1000E000F4000018222000A00001001008ED00E03C
:1000F00000000000000000000000000074B24E7A12
:1001000000200420F7010010C3010010C5010010F9
:10011000C1010010C1010010C1010010C101001097
:10012000C1010010C1010010C1010010C701001081
:10013000C1010010C1010010C9010010CB01001065
:10014000CD010010CD010010CD010010CD01001037
:10015000CD010010CD010010CD010010CD01001027
:10016000CD010010CD010010CD010010CD01001017
:10017000CD010010CD010010CD010010CD01001007
:10018000CD010010CD010010CD010010CD010010F7
:10019000CD010010CD010010CD010010CD010010E7
:1001A000CD010010CD010010CD010010CD010010D7
:1001B000CD010010CD010010CD010010CD010010C7
:1001C00000BE00BE00BE00BE00BE00BEEFF3058054
:1001D000103800BEF2EB8871E0150F1004160F10F6
:1001E0003402001090A31AE700201F49086006C8D7
:1001F00081F3088810471D48006800282FD10DA4FE
:100200000ECC002902D000F012F8F9E71849194A7B
:10021000002000E001C19142FCD1174988471749ED
:1002200088471749884700BEFDE701C901C29A42C5
:10023000FBD3704704160F10C0000020D0480020E8
:10024000145E0F100000042000000420145E0F1044
:10025000001004200010042000000000704709482E
:100260005DF09AFD0047000008ED00E0000000D0BE
:10027000004900209CDC0120E9C50510290300107D
:100280001DC705105756000006005250ABB360530F
:10029000600D091006005250861C0302700D0910F3
:1002A000060052505422A29D7C0D091005005250A8
:1002B000DE65F468145E0F10F8B5C04610B5064C44
:1002C0002378002B07D1054B002B02D0044800E017
:1002D00000BF0123237010BD304C0020000000003F
:1002E000F0400810044B10B5002B03D0034904481C
:1002F00000E000BF10BDC04600000000344C0020EC
:10030000F040081010B564F00DF9044C206802F0BC
:1003100081FA206802F044FC10BDC046E050002085
:1003200010B582F0C9FD0000922070B5800060F029
:100330008BF9040002F098FCC42300255B00E55013
:1003400023008933FF335D609D6084239B00E018A8
:1003500000F0A2FC8D239B00E554114EE3185D6074
:100360001D619B60DB601420346060F06DF9050056
:1003700002F048FA0B4C3068256001F001FE0A4893
:1003800064F0A8F823681B7C002B04D1C0462368C6
:100390001B7C002BFAD0306800F01AFD002070BDE5
:1003A000DC500020E05000200503001010B5074C81
:1003B00020007BF01DFA20003C3C7BF0EBF9200094
:1003C0007BF016FA20007BF0E5F910BDD4E50020A3
:1003D000044B10B51868002803D09968091A60F01A
:1003E00043F910BD44E50020F0B55746DE464E46C1
:1003F000454681461823E0B54B448BB00360079314
:1004000001234360FE2300259B0503618560C560D1
:100410004561856110200F00511A4844C9100492AB
:10042000069081F02FF84B465B6804009A4698428C
:1004300014D9012800D1E3E080239B05984200D322
:10044000E8E08600300060F0FFF83200002105008F
:1004500060F0EEF84B46A2461D605C60049BBB4218
:1004600057D04B461B68B846039308234B4405936B
:1004700043461F88514638005DF0E8FC8B009B46E0
:100480005A46039B9B58002B0FD056468A461C6841
:10049000A588BD4233D02468002C06D0A588310041
:1004A00028005DF0D3FC8A45F3D00C2060F0CCF836
:1004B000002306000822414608C060F0BFF801236F
:1004C0004A4600934B4608ACDB6820005268069908
:1004D00081F02CF82378002B22D14B461B68039324
:1004E000039C5C442368002B00D176E01B683360DA
:1004F00023681E604B464A46DB680133D3600823FD
:100500009C46049BE044434503D04B465B689A46B7
:10051000AEE70BB0F0BCBB46B246A946A046F0BD64
:1005200063689A46012B6FD080239B059A4571D250
:1005300053469C00200060F087F8220000210390C1
:1005400060F076F84B4600229D689A60002D2BD013
:100550000023B3465646BA461F0005E012682260E3
:100560001B681C60002D1CD02C003100A0885DF0A1
:100570006DFC039A8B00944663441A682D68002A28
:10058000ECD14A46926822604A469460059A1A6005
:100590002368002B32D06346BF00FC500F00002DB3
:1005A000E2D15746B2465E464B4603CB079B834299
:1005B00002D0890060F058F84B4652465A60039AC0
:1005C00051461A6038005DF041FC8B009B46039C4D
:1005D0005C442368002B00D088E74B464A469B6862
:1005E00096603360002B06D0988851685DF02EFC31
:1005F000039B8900CE50059B23607BE70F00B1E78A
:100600004B469D61079D25E74B4600229A61079B5B
:10061000039397E780F07AFEF0B54E46DE465746E4
:10062000454681461823E0B54B448BB003600793E1
:1006300001234360FE2300269B0503618660C6609C
:100640004661866110200D00511A4844C910049279
:10065000069080F017FF4B465B6804009A4698426C
:1006600014D9012800D1E5E080239B05984200D3EE
:10067000EAE0870038005FF0E7FF3A00002106005B
:100680005FF0D6FF4B46A2461E605C60049BAB4207
:1006900057D04B461B68039308234B4405932B8884
:1006A0005146180098465DF0D1FB8B009B465A4698
:1006B000039B9B58002B10D0474688461C68A68891
:1006C000BE423AD02468002C06D0A688514630009D
:1006D0005DF0BCFB8845F3D0B8460C205FF0B4FF5A
:1006E0000022030004C306CD06C301234A4600933B
:1006F0004B4608ACDB68060052682000069980F083
:1007000015FF2378002B23D14B461B680393039CD2
:100710005C442368002B00D179E01B6833602368B8
:100720001E604B464A46DB680133D360049BAB42F4
:1007300007D04B465B689A46B1E7049B0835AB424D
:10074000F7D10BB0F0BCBB46B246A946A046F0BDFF
:1007500063689A46012B71D080239B059A4573D21A
:1007600053469C0020005FF06FFF220000210390A1
:100770005FF05EFF4B4600229F689A60002F2DD0ED
:1007800000239B462B005546B2465E469B4605E03D
:10079000126822601B681C60002F1CD03C002900DE
:1007A000A0885DF053FB039A8B00944663441A685B
:1007B0003F68002AECD14A46926822604A4694601B
:1007C000059A1A602368002B32D06346B600F450B5
:1007D0000E00002FE2D15646AA465D464B4603CB9B
:1007E000079B834202D089005FF03EFF4B46524692
:1007F0005A60039A51461A6040465DF027FB8B0011
:100800009B46039C5C442368002B00D085E74B4645
:100810004A469B6896603360002B06D098885168E2
:100820005DF014FB039B8900CE50059B236078E7A5
:100830000E00B1E74B469E61079E23E74B46002220
:100840009A61079B039395E780F060FD012270B5E4
:1008500016000F4D2B78BFF35B8F1E401A4202D05B
:100860000C4C200070BD280080F038FB094C00289B
:10087000F7D0094BA222E650084B00212670666093
:10088000A660E0185FF0D4FE280080F043FBE8E7A4
:10089000A84C002040E60020944000009840000052
:1008A0000122F0B54646D6464F461500C0B5244C49
:1008B00006002378BFF35B8F1D401A4229D0CA2758
:1008C00000237F00F35101339946D0231B060024F7
:1008D00098461C4D0023EB56002B11DD200059F0EB
:1008E0000DFF4B46A3409A464346524601219A6269
:1008F0002000002259F0A4FE5346F2591343F3514D
:10090000013414351E2CE5D1E0BCBA46B146A846E8
:10091000F0BD200080F0E2FA0028D0D00A480B4B4E
:100920000570C5500A4B45609C468560A222002197
:1009300060445FF07DFE200080F0ECFABFE7C04627
:10094000A84C00207D27012040E6002094400000B4
:1009500098400000D023F0B545464E46DE46574647
:1009600001221B06E0B55E681500F34383B00193D6
:10097000444B040098461B78BFF35B8F1D401A421E
:100980006AD0414F38001AF0AFFBCA235B00019ACE
:10099000E35800901340B822520082589A4214D073
:1009A0000122434611001B78BFF35B8F1940894633
:1009B0001A423BD0A323DB00FB589B46002B0BD1F4
:1009C000009A01997133FF33D15003B0F0BCBB469C
:1009D000B246A946A046F0BD02F032F9CA23B821BA
:1009E00022005B0049008246E75801200023894627
:1009F0009932FF3201009940394212D04C46009D95
:100A0000019E2C592500754029420AD0554616688A
:100A1000AD1B5D4505D961404C46009D29515146AD
:100A20001160013304321E2BE4D1CEE7404680F042
:100A300055FA0028BED04B464A463B707B60BB60EF
:100A4000124B0021FA50124BA222F8185FF0F0FD71
:100A5000404680F05FFAADE7404680F03FFA0A4F2B
:100A6000002800D18EE7094BA222FD50084B00213F
:100A70003D707D60BD60F8185FF0DAFD404680F0A3
:100A800049FA7FE7A84C002040E60020944000008F
:100A900098400000F8B5CE46474680B504001AF0ED
:100AA00095FE754A0300904216D0744A90420AD0CF
:100AB0000020002B12D0C0BCB946B046F8BD28209B
:100AC000285CC00760D50220F5E72821695C0A424E
:100AD000F9D10121002B59D00120ECE701221500AA
:100AE000674B98461B78BFF35B8F1D401A4264D05A
:100AF000644F38001AF0F8FA0122434616001B78BA
:100B00000500BFF35B8F1E401A4200D19DE0380004
:100B10001AF0EEFA06002000FFF71CFF280002F092
:100B200043FEC4235B009946A1440021484603F0DC
:100B3000F1FE280002F090FD0021484603F002FF7C
:100B4000300029002422283028315FF077FD01226F
:100B5000434616001B78BFF35B8F1E401A4260D0DD
:100B6000494BFA5C012A3DD0D31E59424B41EF6AF2
:100B7000C020D9B280233E00023A9B008000D2B24E
:100B80003B40064086429AD0012AA3D8002971D161
:100B90008D228C23920094469B00E3189B6864444A
:100BA000002B67D0220003E01A009B68002B28D09E
:100BB0001969B942F8D2DB68F8E7404680F08EF94F
:100BC000304F002895D0314BA222FD50304B0021F0
:100BD0003D707D60BD60F8185FF02AFD404680F0F2
:100BE00099F986E7EF6A8023C02138009B008900CD
:100BF0003B400840884200D167E71800431E9841F7
:100C000059E70020944200D155E71369BB4200D94F
:100C100051E753690E2B00D94DE71E4A9B009858A7
:100C200049E7404680F05AF9002899D0174BA22294
:100C3000FE50174B00213E707E60BE60F8185FF0DA
:100C4000F7FC404680F066F98AE7404680F046F9B6
:100C5000002800D15BE70D4BA222FE500C4B002177
:100C60003E707E60BE60F8185FF0E2FC404680F0A7
:100C700051F94CE700201EE7A58477E7E1E437F758
:100C8000A84C002040E60020AA3400009440000058
:100C90009840000030440810002305490370054BBC
:100CA00001611A685B688260C3608261C3617047DA
:100CB0000C020C01A80A0910F0B5037804000D001D
:100CC000170083B0002B1DD1CB6A002B08D0394B05
:100CD0001A685B68009201938260C36003B0F0BD44
:100CE000C168806803000B4341D00D00324B5A6A43
:100CF000AA42F3D39B6A834201D2AA42EED00123D7
:100D00002370EBE7CB6A028A93420AD0428A93426D
:100D100007D0284B1A685B68009201938261C36117
:100D2000DCE7A069E16903000B4314D00E00224BFD
:100D30005A6AB242D2D39B6A834201D2B242CDD028
:100D4000EB6A228A93421ED0628A9342C6D11B4824
:100D50001AF004FDC2E75AF02DFE0023184A80184D
:100D6000594100291BDB0E00A061E161DFE75AF069
:100D700021FE3222002380185941002914DB0D0086
:100D8000A060E160B2E73800431E98410D4B0E4A67
:100D90009C464042104060441AF0E0FC9EE701206F
:100DA0000A4E0A494042DFE70120084D0749404208
:100DB000E6E7C046A80A091000400540E1E437F71D
:100DC00000093D00A58477E728E25D5CFFFFFF7F17
:100DD000F0B54546DE4657464E46E0B5DA4C0500CE
:100DE000237889B0BFF35B8FDB0700D40BE2D74BCE
:100DF0001B680393FFF72AFD1AF076F98046FFF788
:100E000025FD1AF075F90400FFF720FD1AF068F9C6
:100E10000190002064F006F8C4235B009C46AC44BB
:100E20006346029384239B009C46AC446346009334
:100E30002823434404930123994628340594BA2374
:100E400042465B00D35C002B47D14C464A46C04B20
:100E50001B78BFF35B8F1C401A4200D1E0E0BD4815
:100E600019F034FB2800FFF775FD404602F09CFCAA
:100E7000019B002B00D1A0E04A46B74B1B78BFF383
:100E80005B8F1A4200D1E4E0B44803F087FE84236C
:100E90009B00EB5C002B00D07EE04346DB6A002B1E
:100EA00000D003E1009B9868D96803000B4300D190
:100EB0008EE10C00AA4B5A6AA242C0D39B6A8342BD
:100EC00001D2A242BBD084234A469B00EA54BA23F3
:100ED00042465B00D35C002BB7D04C464A469C4B45
:100EE0001B78BFF35B8F1C401A4200D14AE19D4F33
:100EF00000243E000023F356002B02DD200059F0B1
:100F00001BFC013414361E2CF4D14C464A46904B3F
:100F10001B78BFF35B8F1C401A4200D1FBE08D4869
:100F20001AF066F84C464A46894B1B78BFF35B8F34
:100F30001C401A4200D1D5E0CA235B009A46002328
:100F40005246AB50D0231B0600249B460023FB5681
:100F5000002B10DD4E46200059F0D0FBA6405B462A
:100F600000229E620121200059F06AFB5346EB5893
:100F70001E435346EE50013414371E2CE6D1404632
:100F800002F04CFA0021029803F0A6FCBA230022DA
:100F900041465B00CA5458E743460099DB6A0A8A17
:100FA000934260D04A8A93425DD06F4B5C681B6865
:100FB000069307948B61CC6141E74A466B4B1B78E3
:100FC000BFF35B8F1A427AD069481AF061FE029C27
:100FD0000021200003F09EFC404603F039F8002277
:100FE00041460098FFF768FE404602F035FB2000BE
:100FF000002103F0A7FC0499242205985FF01EFB52
:10100000039A4146136810009B689847200001210D
:1010100003F098FC01200021404263F075FF0EE7C9
:101020004B487FF05BFF002800D118E7494B494A45
:101030001C705C609C604F4B1000D4504E4BA22241
:101040009C46002160445FF0F3FA41487FF062FF64
:1010500005E741487FF042FF002800D114E73E48F1
:101060007FF058FF10E7009B9869D96903000B4394
:1010700000D1A0E00C003A4B5A6AA24200D2DEE650
:101080009B6A834202D2A24200D1D8E64346009A2C
:10109000DB6A128A934200D1A7E0009A528A9342F7
:1010A00000D0CCE635481AF059FBC8E62E4B009A22
:1010B0005C681B68069307949360D460BFE62B4876
:1010C0007FF00CFF002800D17EE7294A019B2C48C5
:1010D000136053609360136181F0F6FE23487FF044
:1010E00019FF71E71A487FF0F9FE002800D123E7C5
:1010F000184B184A1C705C609C601E4B1000D4504A
:101100001D4BA2229C46002160445FF091FA1048DA
:101110007FF000FF10E70E487FF0E0FE002800D1CE
:10112000FDE60C4B0B4A1C705C609C60114B100080
:10113000D450114BA2229C46002160445FF078FA03
:1011400003487FF0E7FEEAE6944C002038E50020F3
:10115000A84C002040E60020904C002030E5002004
:10116000004005407D270120A80A09109C4C002062
:1011700044E500209440000098400000E1E437F787
:10118000D103001025487FF0A9FE002800D1AEE66B
:10119000234B234A1C705C609C60224B1000D4508F
:1011A000214BA2229C46002160445FF041FA1B487B
:1011B0007FF0B0FE9BE65AF0FDFB00241B4BC018ED
:1011C0006141002915DB0C00009B9861D96152E751
:1011D0005AF0F0FB322200238018594100290DDB20
:1011E0000C00009B9860D96064E611481AF0B6FACA
:1011F00025E601200F4C0F494042E5E701200D4C48
:101200000C494042EDE720007FF068FE002800D145
:10121000EDE520007FF07EFEE9E5C046A84C002009
:1012200040E60020944000009840000000093D0086
:10123000CD66D543FFFFFF7FF0B50500C646CB68FE
:101240000020EB602B0000B54E680C0028606E603B
:10125000A8601033103184C984C32F00A8611837E7
:10126000012E0CD080239B059E4248D2B600300050
:101270005FF0EAF93200002107005FF0D9F9A468B5
:101280002F60002C37D00C205FF0DEF90022030025
:10129000070004C3221D03CA03C3AF60B88869688E
:1012A0005CF0D4FD2B002A68890008338B50266837
:1012B000002E20D0002398460C205FF0C5F942464E
:1012C0000300040004C3321D03CA03C33C60A088AA
:1012D00069685CF0BBFD2B6889009C4661440B6823
:1012E000002B04D03668002E05D02700E4E70F60FD
:1012F0003668002EF9D1280080BCB846F0BD80F0D9
:1013000005F8C046F0B50500C646CB680020EB6086
:101310002B0000B54E680C0028606E60A86010338A
:10132000103184C984C32F00A8611837012E0CD056
:1013300080239B059E4248D2B60030005FF084F9BE
:101340003200002107005FF073F9A4682F60002CC1
:1013500037D00C205FF078F900230700082208C07E
:10136000211D5FF06BF9B8886968AF605CF06EFDB5
:101370002B002A68890008338B502668002E20D065
:10138000002398460C205FF05FF9434604000822D2
:1013900008C0311D5FF052F9A08869683C605CF0BC
:1013A00055FD2B6889009C4661440B68002B04D0D6
:1013B0003668002E05D02700E4E70F603668002E5F
:1013C000F9D1280080BCB846F0BD7FF09FFFC04631
:1013D000F0B54F46D64646468C680B1DC0B58146D3
:1013E0000F0090469A46002C1DD0166804E0A368B2
:1013F0000122002B07D01C002569AE42F7D3E36819
:101400000022002BF7D12300002A0DD1B54218D3BA
:1014100023004A461360002313714846E0BCBA46D5
:10142000B146A846F0BD1C00FB68A3420CD02000CA
:101430007FF08EFE434605691E6823000400B54216
:10144000E6D2002BE5D01C00A2451ED043461B6807
:101450009C4623699C45B641764218205FF0F4F81B
:10146000030005004246103303CA03C3534622005B
:10147000290030007FF088FE7B694A4601337B619A
:101480004B461D6001231371C7E70126E5E7C046FF
:10149000F0B557464546DE464E468046E0B50F005D
:1014A00018218BB04144140004920791012201607D
:1014B000FE21426089050022016110218260C26024
:1014C00042618261E21B9210414405911101891829
:1014D0000A0289180A0489184942994200D219005F
:1014E00005987FF0CFFF43465B6804009A4683422D
:1014F00014D2012800D1EEE080239B05984200D34E
:10150000F4E0860030005FF09FF832000021050013
:101510005FF08EF84346A2461D605C60049B9F42CC
:101520005DD043461B6803930823434406933B88DE
:101530005146180099465CF089FC8B009B465A4640
:10154000039B9B58002B10D04E4689461C68A588EB
:10155000AE423CD02468002C06D0A5885146280015
:101560005CF074FC8945F3D0B14640205FF06CF824
:101570000023060003603B88391D83800830FFF795
:101580005BFE3000390024302031FFF7BBFE012321
:1015900042460093434608ACDB6820005268059938
:1015A0007FF0C4FF2378002B21D143461B680393AF
:1015B000039C5C442368002B00D179E01B683360F6
:1015C00023681E6043464246DB680133D360049BB8
:1015D0003C37BB4203D043465B689A46A7E7404688
:1015E0000BB0F0BCBB46B246A946A046F0BD63684E
:1015F0009A46012B74D080239B059A4576D2534698
:101600009C0020005FF020F82200002103905FF092
:101610000FF8434600229D689A60002D2FD00023CA
:1016200032009B463B0056465F4692469B4605E08D
:10163000126822601B681C60002D1CD02C00310039
:10164000A0885CF003FC039A8B00944663441A68FC
:101650002D68002AECD1424692682260424694608E
:10166000069A1A602368002B33D06346BF00FC50F3
:101670000F00002DE2D153465F46B2461E0043469E
:1016800003CB079B834202D089005EF0EDFF434607
:1016900052465A60039A51461A6048465CF0D6FB9F
:1016A0008B009B46039C5C442368002B00D085E79D
:1016B000434642469B6896603360002B06D098886C
:1016C00051685CF0C3FB039B8900CE50069B2360EE
:1016D00078E70F00B0E700234246079D936119E7C2
:1016E000434600229A61079B039392E77FF00EFE28
:1016F000F0B5DE4657464E464546DD49E0B50A00A0
:10170000DC4CDD4BA54403608346103210A8FEF785
:1017100083FFDA4900250A0080AC103217A8FEF7D3
:1017200063FE10A9258081A8FFF786FD17A988A868
:10173000FFF7E8FDD2491EA80A007832FEF76CFFD9
:10174000D04901260A0025A83032FEF74DFEA687B3
:101750001EA990A8FFF770FD25A997A8FFF7D2FD55
:10176000C9492CA80A002032FEF756FF102200219A
:1017700036A85EF05DFFFE239B0506229A4637934E
:1017800078232CA9E25239AF9FA834963397359528
:10179000FFF752FD33A9A6A8FFF7B4FDBB493AA84D
:1017A0000A005032FEF738FFB94941A80A00183242
:1017B000FEF71AFEB42303223AA9E252AEA8FFF7BD
:1017C0003BFD41A9B5A8FFF79DFDB24948A80A0015
:1017D0004032FEF721FFB0494FA80A001032FEF751
:1017E00003FEF023042248A9E252BDA8FFF724FD1E
:1017F0004FA9C4A8FFF786FDA84956A80A00483299
:10180000FEF70AFFA6495DA80A003032FEF7ECFD9C
:10181000962305225B00E25256A9CCA8FFF70CFDE7
:101820005DA9D3A8FFF76EFD9E4964A80A0018328F
:10183000FEF7F2FE102200216EA85EF0F9FE71ABF9
:101840006B93984653466F93B42308225B00E25291
:1018500064A9DBA86C966D95FFF7EEFC6BA9E2A876
:10186000FFF750FD904972A80A001832FEF7D4FE27
:10187000102200217CA85EF0DBFE7FAB79939946B5
:1018800053467D93D22309225B00E25272A9EAA853
:101890007A967B95FFF7D0FC79A9F1A8FFF732FD86
:1018A00058460CAB05930FAB04930BAB03930EABF5
:1018B00002930DAB01930AAB009321000023143077
:1018C000F8AAFFF7E5FDF8AE3C3EB56A002D06D05C
:1018D00028002D680C215EF0C7FE002DF8D1736A38
:1018E00000219A00306A5EF0A3FE0023F362B36227
:1018F0003300306A3833716A984202D089005EF052
:10190000B3FEF568002D06D028002D680C215EF08E
:10191000ABFE002DF8D1B36800219A0070685EF02C
:1019200087FE00233361F360330070681C33B168B5
:10193000984200D118E389005EF096FEA642C3D11A
:101940007B9D002D06D028002D680C215EF08CFEBA
:10195000002DF8D17A9B00219A00799B18000793FB
:101960005EF066FE002379987A997C937B934845D4
:1019700002D089005EF078FE749D002D06D028000C
:101980002D680C215EF070FE002DF8D1739B0021B4
:101990009A00729807935EF04BFE0023729875933D
:1019A000749378AB7399984202D089005EF05CFE24
:1019B0006D9D002D06D028002D680C215EF054FE90
:1019C000002DF8D16C9B00219A006B9B18000793A7
:1019D0005EF02EFE00236B986C996E936D934045DC
:1019E00002D089005EF040FE669D002D06D02800E2
:1019F0002D680C215EF038FE002DF8D1659B00218A
:101A00009A00649807935EF013FE0023649867932E
:101A100066936AAB6599984202D089005EF024FE15
:101A20005F9D002D06D028002D680C215EF01CFE65
:101A3000002DF8D15E9B00219A005D9B1800079352
:101A40005EF0F6FD00235D9860935F9363AB5E9953
:101A5000984202D089005EF007FE589D002D25D0E7
:101A600028002D680C215EF0FFFD002DF8D11DE04F
:101A7000E84108101CFCFFFFC8EF0810F8410810EF
:101A80000842081080420810B0420810D0420810E6
:101A90002043081038430810784308108843081082
:101AA000D04308100044081018440810579B002128
:101AB0009A00569807935EF0BBFD00235698599301
:101AC00058935CAB5799984202D089005EF0CCFDE8
:101AD000519D002D06D028002D680C215EF0C4FD1C
:101AE000002DF8D1509B00219A004F9B18000793BE
:101AF0005EF09EFD00234F985293519355AB509941
:101B0000984202D089005EF0AFFD4A9D002D06D0BC
:101B100028002D680C215EF0A7FD002DF8D1499B0F
:101B200000219A00489807935EF082FD00234898B0
:101B30004B934A934EAB4999984202D089005EF08C
:101B400093FD439D002D06D028002D680C215EF0EA
:101B50008BFD002DF8D1429B00219A00419B18007B
:101B600007935EF065FD002341984493439347AB90
:101B70004299984202D089005EF076FD3C9D002D8E
:101B800006D028002D680C215EF06EFD002DF8D1E6
:101B90003B9B00219A003A9807935EF049FD002391
:101BA0003A983D933C9340AB3B99984202D08900D0
:101BB0005EF05AFD359D002D06D028002D680C21C1
:101BC0005EF052FD002DF8D1349B00219A00339B2A
:101BD000180007935EF02CFD002333983499369358
:101BE0003593B84202D089005EF03EFD2E9D002D57
:101BF00006D028002D680C215EF036FD002DF8D1AE
:101C00002D9B00219A002C9807935EF011FD002374
:101C10002C982F932E9332AB2D99984202D08900A5
:101C20005EF022FD279D002D06D028002D680C2196
:101C30005EF01AFD002DF8D1269B00219A00259B0D
:101C4000180007935EF0F4FC00232598289327934F
:101C50002BAB2699984202D089005EF005FD209DAD
:101C6000002D06D028002D680C215EF0FDFC002D13
:101C7000F8D11F9B00219A001E9807935EF0D8FCB4
:101C800000231E982193209324AB1F99984202D0E1
:101C900089005EF0E9FC199D002D06D028002D6812
:101CA0000C215EF0E1FC002DF8D1189B00219A0078
:101CB000179B180007935EF0BBFC002317981A933C
:101CC00019931DAB1899984202D089005EF0CCFCA4
:101CD000129D002D06D028002D680C215EF0C4FC5A
:101CE000002DF8D1119B00219A00109807935EF007
:101CF0009FFC002310981393129316AB11999842EE
:101D000002D089005EF0B0FC00235A4659461363A6
:101D100053639363D3631364536448228B54023236
:101D20008B5274220026CB640B654B658B65CB65AB
:101D30000B664B668B66CB660B678B5202328E54FA
:101D40000521802584209027753A22800132228245
:101D50000132228401326360E360A3606361E36166
:101D6000A3616362E362A36222863C326363E3633E
:101D7000A363A152103201316364E364A364A152EE
:101D8000103201316365E365A365A1521032013160
:101D90006366E366A366A152673A6367E367A36776
:101DA0006253833223508031A3509046823A63506D
:101DB000E2530437E3510837E351043FE351013262
:101DC0000837E2530437E3510837E351043FE35146
:101DD00001320837E2530437E3510837E351043F37
:101DE000E35101320837E2530437E3510837E35136
:101DF000043FE35101320837E2530437E351083717
:101E0000E351043FE35101320837E2530437E35111
:101E10000837E351043FE35101320837E2530437F6
:101E2000E3510837E351043F5A46E3517C241655E9
:101E30005C445351145054504146089480AC0026E1
:101E400027005350099447E088235A46D4583B88CA
:101E5000228A9A4242D2089BA34200D188E03B8862
:101E6000228A93429B415B42079320205EF0ECFB69
:101E70003B8805000382BB6899467B6898464B46C1
:101E800042469E1A002343618361C361C14558D015
:101E90003A4B9E4200D96EE030005EF0D5FB8319CC
:101EA0009A466861EB61C14503D0320041465EF05D
:101EB000C5FB53462200AB612900089B07987FF0C1
:101EC00063F98C235A46D258561C07925A46D6506C
:101ED0001037C0AB9F421ED0002EB5D180235A468A
:101EE000D458002C33D0398804E0A3680120002B9B
:101EF00007D01C00228A8A42F7D8E3680020002B12
:101F0000F7D1002824D19142E2D9002CA3D1103777
:101F1000C0AB9F42E0D13D00099C103D686800289D
:101F200012D0EB68191A5EF09FFBA542F5D1584616
:101F3000F9239B009D44F0BCBB46B246A946A0468F
:101F4000F0BD00260020AAE7A542E6D1EFE7089CF5
:101F500084235A46D358A34200D17CE720007FF067
:101F6000F7F83988028ACEE7A64200D0ACE4E7E46D
:101F70000123079379E77FF0C9F9C046FCFFFF7F93
:101F80000122F0B557464E46DE4645461400E0B500
:101F9000F94F81463B7887B0BFF35B8F1C401A42F4
:101FA00000D134E3F54D280018F074FAF44E33787C
:101FB000BFF35B8FDB0700D408E3F24C200018F07E
:101FC000BBF83378BFF35B8FDB0700D4DEE2200081
:101FD00018F016F93378BFF35B8FDB0700D4B5E256
:101FE000200018F061F83378BFF35B8FDB0700D473
:101FF0008CE22000002118F0ABF904AB9A4602AC49
:10200000002800D076E2C42040005EF01DFB804630
:1020100000F02AFEC42040005EF016FB060000F02F
:1020200023FE012211003B78BFF35B8F19408B46E2
:102030001A4200D13DE24146280019F053F801222E
:1020400011003B78BFF35B8F19408B461A4200D1D9
:1020500018E23100280019F049F8012216003B78F7
:10206000BFF35B8F1E401A4200D1F6E1280018F042
:10207000BFFF404600F0B8FE4846FEF711FC0122C3
:1020800016003B78BFF35B8F1E401A4200D1CFE1B0
:1020900001239B460293A4238C26DB00EB58B60059
:1020A0004E442200310050466360FFF791F902234D
:1020B0000293A523DB00EB582200310050466360F9
:1020C000FFF786F904230293A623DB00EB582200D6
:1020D000310050466360FFF77BF908230293A72382
:1020E000DB00EB582200310050466360FFF770F9C7
:1020F00010230293A823DB00EB5822003100504646
:102100006360FFF765F940230293A923DB00EB58D6
:102110002200310050466360FFF75AF920230293F2
:10212000AA23DB00EB582200310050466360FFF722
:102130004FF980230293AB23DB00EB5822003100E0
:1021400063605046FFF744F96CF08EFD08205EF0A6
:102150007BFA4C46002389349A4643608A4BFF340D
:10216000036001000022200002F0A6FC88205EF03F
:102170006BFA0600882200215EF05AFA834B310088
:1021800033600022200002F06DFC0C205EF05CFA4F
:102190005346436083607E4B0100036000222000B1
:1021A00002F060FC20205EF04FFA060020220021A1
:1021B0005EF03EFA774B310033600022200002F0DF
:1021C00051FC10205EF040FA0600102200215EF063
:1021D0002FFA714B310033600022200002F042FCE4
:1021E00028205EF031FA0600282200215EF020FA55
:1021F0006A4B310033600022200002F033FC3420AF
:102200005EF022FA0600342200215EF011FA644BDF
:1022100031003360634B00223363200002F022FC64
:1022200090205EF011FA0600902200215EF000FA84
:102230003000FFF75DFA31000022200002F012FCAE
:1022400028205EF001FA0600282200215EF0F0F955
:10225000554B310033600022200002F003FC1020B7
:102260005EF0F2F90600102200215EF0E1F94F4B1A
:10227000310033600122200002F0F4FB1C205EF0EC
:10228000E3F906001C2200215EF0D2F9484B310030
:1022900033600022200002F0E5FB34205EF0D4F928
:1022A0000600342200215EF0C3F9424B3100336056
:1022B0000022200002F0D6FB80205EF0C5F9060067
:1022C000802200215EF0B4F930003B4B20223360C5
:1022D000002108305EF0ACF95B465A463000337599
:1022E0002333F25435493F3238305EF0A7F93100DC
:1022F0000022200002F0B6FB38205EF0A5F90600AF
:10230000382200215EF094F92D4B310033605346A2
:10231000337333000C337361B3610022200002F089
:10232000A1FB24205EF090F90600242200215EF03B
:102330007FF9244B310033600022200002F092FB31
:1023400078205EF081F90600782200215EF070F9B5
:102350001D4B310033600022200002F083FB582027
:102360005EF072F90600582200215EF061F9174B09
:10237000002220002CE0C046A84C002040E60020AF
:10238000A04C002058E500206CE1081090DE0810F9
:1023900074DF0810F8E00810E4DF0810DCE2081031
:1023A000C0F1081033335340DCF00810A0EB0810E4
:1023B0009CEE081048F1081000ED0810704108105C
:1023C000F0E3081074ED081018EE081070F0081013
:1023D0003360310002F046FBBC2342465B00D35819
:1023E00048465C78FEF756FB112804D8CB4B80009A
:1023F0001B589F460124CA4D2B78BFF35B8FDB0728
:102400006ED52100C74812F06BFABC2342465B0030
:10241000D3585A78A24206D107B0F0BCBB46B246A8
:10242000A946A046F0BD40465C7001F055FBF3E7BD
:1024300038007EF053FD002800D129E6BA4BA222D5
:10244000EE50BA4B00212E706E60AE60E8185EF060
:10245000EFF838007EF05EFD1AE638007EF03EFDB3
:10246000002800D102E6B04BA222EE50AF4B002173
:102470002E706E60AE60E8185EF0DAF838007EF01C
:1024800049FDF3E538007EF029FD002800D1E0E5A4
:102490005B465A462B706B60AB60A34B0021EA5041
:1024A000A24BA222E8185EF0C3F838007EF032FD9D
:1024B000CFE538007EF012FD002800D1BBE55B4679
:1024C0005A462B706B60AB60974B0021EA50974BDC
:1024D000A222E8185EF0ACF838007EF01BFDAAE5F9
:1024E00028007EF0FBFC002800D18AE728007EF05F
:1024F00011FD86E722008E4801A957F0C1FF002890
:1025000000D09AE08A498B485AF00CF930007EF0EE
:10251000E5FC002800D16CE5200078F03DFF2000AC
:10252000203078F039FF2000403079F071F8200039
:102530007C3079F06DF82000B83079F0DBF97E4816
:1025400080F0C2FC30007EF0E5FC52E530007EF009
:10255000C5FC002800D143E5200078F01DFF2000D5
:10256000203078F019FF2000403079F051F8200039
:102570007C3079F04DF82000B83079F0BBF96E4826
:1025800080F0A2FC30007EF0C5FC29E530007EF032
:10259000A5FC002800D11AE5200078F0FDFE2000FF
:1025A000203078F0F9FE2000403079F031F820003A
:1025B0007C3079F02DF82000B83079F09BF95E4836
:1025C00080F082FC30007EF0A5FC00E530007EF05B
:1025D00085FC5A4C002800D1F0E4200078F0DCFEA5
:1025E0002000203078F0D8FE2000403079F010F83C
:1025F00020007C3079F00CF82000B83079F07AF9BE
:102600004D4880F061FC30007EF084FCD6E4380058
:102610007EF064FC4A4D002800D1C4E4424BA22263
:10262000EC50424B00212C706C60AC60E8185DF0FF
:10263000FFFF38007EF06EFCB5E4049A0299019821
:1026400057F0E2FEDFE4012214003B78BFF35B8F1A
:102650001C401A424DD00121280018F023FD304CB7
:102660002378BFF35B8FDB073AD5FF212D4812F0AB
:1026700037F9344C2378BFF35B8FDB0727D5002174
:10268000314802F079FAC7E60E24B4E60324B2E634
:102690000024B0E60724AEE60524ACE60D24AAE645
:1026A0000424A8E60224A6E60B24A4E60A24A2E653
:1026B0000C24A0E609249EE608249CE606249AE65B
:1026C00022485BF069FB00210300080098472000C6
:1026D0007EF004FC0028D2D020007EF01BFCCEE768
:1026E00020007EF0FBFB0028BFD020007EF012FC13
:1026F000BBE738007EF0F2FB0028ACD00A4BA222E8
:10270000EC500A4B00212C706C60AC60E8185DF056
:102710008FFF38007EF0FEFB9DE7C0462441081085
:10272000944C002038E500209440000098400000C0
:10273000C0D40100F0400810AD03001058E500209F
:1027400040E60020904C002030E50020554200007B
:1027500030B5184A8FB0136801331360012B08D1CC
:102760000122154B52421A6000225A609A60DA60C8
:102770001A61124A136801331360012B01D00FB0A4
:1027800030BD0F493822403168465DF057FF0023C5
:102790000C4C382023606360A3605DF055FF05009A
:1027A0003822383569462060A5605DF047FF6560D6
:1027B000E5E7C046844C00206C4C0020804C002093
:1027C0007041081094350120044B10B5186800289A
:1027D00003D09968091A5DF047FF10BD44E5002059
:1027E00010B5074C200079F003F820003C3C78F04D
:1027F000D1FF200078F0FCFF200078F0CBFF10BD67
:10280000D4E500200023036043608360C360037449
:102810007047C046F8B54E464546DE465746E0B5D9
:10282000CD4D06002B78BFF35B8FDB0700D4CEE0E5
:10283000CA4C200017F080FC2B78BFF35B8FDB07BE
:1028400000D4EDE0200017F0DBFC2B78BFF35B8FAA
:10285000DB0700D40CE1200017F026FCC04C2378E5
:10286000BFF35B8FDB0700D422E1BE4B18683060FA
:10287000002800D12BE103685B6898473068036843
:102880005B6B9847B84B041E994600D19CE001222F
:1028900015001B78BFF35B8F1D401A4200D147E142
:1028A000B24B9A462100504619F098F960205DF02D
:1028B000CBFE0400602200215DF0BAFEAC4B002587
:1028C000236001232374984623002033A36120232F
:1028D000371DE55421000322380002F0C3F8EA2036
:1028E00080005DF0B1FEEA220400002192005DF05C
:1028F0009FFEA04B20002360CC230A225B00D53032
:10290000E250FF3074F0F6F9E3239B00E554E3183E
:102910005D601D61032221009B60DB60380002F0D6
:10292000A1F820205DF090FE4246934BC5600574EF
:1029300045618561914D03602B7804001A409346F0
:102940004246BFF35B8F1A4200D1D7E08C4B9846CA
:1029500042468C4B2100D35C38002372032202F0E4
:1029600081F810205DF070FE0400102200215DF05F
:102970005FFE854B210023600322380002F072F8CD
:102980001C205DF061FE04001C2200215DF050FE61
:102990007E4B032223602100380002F063F80122FD
:1029A0004B4614001B78BFF35B8F1C401A4200D1CA
:1029B00092E0504619F094F801233374F0BCBB4602
:1029C000B246A946A046F8BD684B9A466EE7280075
:1029D0007EF084FA614C002800D12AE7200078F0CC
:1029E000DBFC2000203078F0D7FC2000403078F06D
:1029F0000FFE20007C3078F00BFE2000B83078F01D
:102A000079FF634880F060FA28007EF083FA2000A6
:102A100017F092FB2B78BFF35B8FDB0700D511E734
:102A200028007EF05BFA002800D10BE7200078F048
:102A3000B3FC2000203078F0AFFC2000403078F06C
:102A4000E7FD20007C3078F0E3FD2000B83078F01E
:102A500051FF4F4880F038FA28007EF05BFA2000E2
:102A600017F0CEFB2B78BFF35B8FDB0700D5F2E6C8
:102A700028007EF033FA002800D1ECE6200078F040
:102A80008BFC2000203078F087FC2000403078F06C
:102A9000BFFD20007C3078F0BBFD2000B83078F01E
:102AA00029FF3B4880F010FA28007EF033FAD2E686
:102AB00020007EF013FA002800D1D6E620007EF038
:102AC00029FA284B18683060002800D0D3E6264B3E
:102AD0009946264B9A46E9E648467EF0FFF90028DB
:102AE00000D166E753462B481C605C609C601C610B
:102AF00080F0EAF948467EF00DFA5AE728007EF0A9
:102B0000EDF91F4B9846002800D121E75A46594657
:102B10001A705A609A6042461F4B2048D150404478
:102B2000A22200215DF084FD28007EF0F3F90FE77A
:102B300048467EF0D3F90D4B9A46002800D1B1E605
:102B40001D605D609D601D61124880F0BDF94846C2
:102B50007EF0E0F9A6E6C046A04C002058E5002033
:102B6000944C002038E500209C4C002044E50020D7
:102B700018E9081030EB08105CEC0810A84C002095
:102B800040E60020350E000000DF081084E0081049
:102B9000E1270010C9270010944000009840000071
:102BA00070B50400051D2800032101F0CBFE20684C
:102BB0000028F8D00368DB6898472800032101F05B
:102BC000C1FE20680028F5D1EDE7C04630B5174AB0
:102BD0008FB0136801331360012B08D10122144B0D
:102BE00052421A6000225A609A60DA601A61114AF1
:102BF000136801331360012B01D00FB030BD3822B0
:102C00000D4968465DF01AFD00230C4C3820236006
:102C10006360A3605DF018FD050038223835694611
:102C20002060A5605DF00AFD6560E6E7844C002049
:102C30006C4C0020804C00206C440810943501201E
:102C400010B558F0B7FE002905D0FA2200239200F3
:102C50005BF03AF910BDFA2189005BF0F7F8F9E76B
:102C600010B558F0A7FE10BDF8B5002500260400E9
:102C7000282705808560867006714F4B4F48504964
:102C8000504AE06021616261A361E3612362636293
:102C9000E6552437E56220636163A263E36323643E
:102CA0006364A364E65523666366A366E3667023E4
:102CB000606520002565A165E265E5521033656712
:102CC000A567E567E5500433E5500433E550043368
:102CD000E5500433E5501022002194305DF0A8FC4B
:102CE000A423E5500433E5500433E5500433E550A4
:102CF0000433E5500433E5500433E5500433E55024
:102D00000433E5500433E5500433E5500433E55013
:102D10000433E5500433E55023000122DA335D80AB
:102D2000BA231700284D5B00E6542B78BFF35B8F66
:102D30001F401A4214D00122BC231700234E5B000F
:102D4000E6502B78BFF35B8F1F401A421ED0C02382
:102D50001F4A5B00E250002204332000E254F8BD19
:102D600028007EF0BBF80028E5D01A481A4B067000
:102D7000C7501A4B47609C468760A22200216044DE
:102D80005DF056FC28007EF0C5F8D4E728007EF000
:102D9000A5F80028DBD0124B0F4AF3189F501F7084
:102DA0005F609F600F4BA2220021F0185DF040FC95
:102DB00028007EF0AFF8CAE700FEFF460000FF7F64
:102DC000FF7FFF7FFF7F0000A84C00203CEB00202E
:102DD000ACEB002040E6002094400000984000004A
:102DE00004FBFFFF9C3B0000F0B501224E46454628
:102DF000DE465746E0B51600D74D04002B7885B067
:102E0000BFF35B8F1E401A4200D1E8E208205DF05C
:102E10001BFC0123002599464360DF330560E05029
:102E200008205DF011FC022398464360E233056000
:102E3000E05008205DF008FC0427E8230560E0501E
:102E4000476008205DF000FC0826EC230560466022
:102E5000E05008205DF0F8FB4B464360EF3305601F
:102E6000E05008205DF0F0FB43464360F23305601C
:102E7000E05008205DF0E8FBF8230560E050476073
:102E800008205DF0E1FBFC2305604660E05008206F
:102E90005DF0DAFB1023F83605604360A05108208E
:102EA0005DF0D2FB20234360E4330560E05008204E
:102EB0005DF0CAFB40234360C8330560E050082042
:102EC0005DF0C2FB802343608C330560E050082036
:102ED0005DF0BAFB88235B0005604660E050082087
:102EE0005DF0B2FB80239B004360EC3B0560E0504B
:102EF00008205DF0A9FB8023DB0043608C235B008E
:102F00000560E05008205DF09FFB80231B014360BB
:102F10008E235B000560E05008205DF095FB802368
:102F20005B01436090235B000560E05008205DF08A
:102F30008BFB80239B01436092235B000560E05084
:102F400008205DF081FB8023DB01436094235B005C
:102F50000560E05008205DF077FB8026962336025E
:102F60005B0005604660E05008205DF06DFB80234B
:102F70005B03436098235B000560E05008205DF030
:102F800063FB80239B0343609A235B000560E05052
:102F900008205DF059FB8023DB0343609C235B002A
:102FA0000560E05008205DF04FFB80231B04436068
:102FB0009E235B000560E05008205DF045FB802308
:102FC0005B044360A0235B000560E05008205DF0D7
:102FD0003BFB80239B044360A2235B000560E05021
:102FE00008205DF031FB8023DB044360A4235B00F9
:102FF0000560E05008205DF027FB80231B0543603F
:10300000A6235B000560E05008205DF01DFB8023D7
:103010005B054360A8235B000560E05008205DF07D
:1030200013FB80239B054360AA235B000560E050EF
:1030300008205DF009FB8023DB054360AC235B00C7
:103040000560E05008205DF0FFFA80231B06436016
:10305000AE235B000560E05008205DF0F5FAB02378
:103060005B0005604660E05008205DF0EDFA182333
:1030700043604D33FF330560E05008205DF0E4FA13
:1030800019230F2643605033FF330560E0500820BA
:103090005DF0DAFAB44631491A238C44664602964A
:1030A000E0264360B14653330436FF33B04604365E
:1030B000E05000220023B4460560294D03908E5C49
:1030C000362E0AD8B600AE59B746AE267600A759B6
:1030D00001269E40386806433E60013314321E2BA1
:1030E000EDD105B0F0BCBB46B246A946A046F0BD46
:1030F000AC267600A759EBE7AA267600A759E7E7A2
:10310000A8267600A759E3E7A6267600A759DFE7A9
:10311000A4267600A759DBE7A2267600A759D7E7B1
:10312000A0267600A759D3E79E267600A759CFE7B9
:103130009C267600A759CBE79A267600A759C7E7C1
:1031400098267600A759C3E796267600A759BFE7C9
:1031500094267600A759BBE7A84C00207D270120C4
:10316000A4440810A94887580298805801904846FE
:10317000205882464068384208D001205646984080
:1031800036683043834650465E46066040462058C7
:1031900082464068384208D001205646984036683A
:1031A0003043834650465E4606606046205882465D
:1031B0004068384208D0012056469840366830436F
:1031C000834650465E460660EC20205882464068A2
:1031D000384206D0012750469F40006807435046BA
:1031E0000760F0202758019E7868304204D0012003
:1031F00098403E6830433860F427E759019E78686C
:10320000304204D0012098403E6830433860F827AF
:10321000E759019E7868304204D0012098403E680A
:1032200030433860FC27E759019E7868304204D06B
:10323000012098403E683043386080277F00E7597E
:10324000019E7868304204D0012098403E683043A7
:10325000386082277F00E759019E7868304204D0A9
:10326000012098403E683043386084277F00E7594A
:10327000019E7868304204D0012098403E68304377
:10328000386086277F00E759019E7868304204D075
:10329000012098403E683043386088277F00E75916
:1032A000019E7868304204D0012098403E68304347
:1032B00038608A277F00E759019E7868304204D041
:1032C000012098403E68304338608C277F00E759E2
:1032D000019E7868304204D0012098403E68304317
:1032E00038608E277F00E759019E7868304204D00D
:1032F000012098403E683043386090277F00E759AE
:10330000019E7868304204D0012098403E683043E6
:10331000386092277F00E759019E7868304200D0DC
:10332000D6E6013314321E2B00D0C8E6D9E60126BA
:103330009E40039F01333868143206433E601E2BC3
:1033400000D0BCE6CDE6B4267600A759C0E6B2268A
:103350007600A759BCE6B0267600A759B8E68E26B7
:103360007600A759B4E68C267600A759B0E69226D7
:103370007600A759ACE690267600A759A8E68A26DB
:103380007600A759A4E688267600A759A0E68626E7
:103390007600A7599CE684267600A75998E68226EF
:1033A0007600A75994E680267600A75990E6FC2679
:1033B000A7598DE6F826A7598AE6F426A75987E685
:1033C000F020275884E6EC20275881E660462758ED
:1033D0007EE6404627587BE64E46A75978E6280009
:1033E0007DF07CFD002800D110E50948094B0670EE
:1033F000C650094B46609C468660A222002160446C
:103400005DF016F928007DF085FDFFE4842701209A
:1034100040E600209440000098400000E02310B5F2
:103420000400C058002802D008215DF01DF9E423F3
:10343000E058002802D008215DF016F9E823E05892
:10344000002802D008215DF00FF9EC23E058002895
:1034500002D008215DF008F9F023E058002802D0DE
:1034600008215DF001F9F423E058002802D008217A
:103470005DF0FAF8F823E058002802D008215DF04A
:10348000F3F8FC23E058002802D008215DF0ECF8A6
:1034900080235B00E058002802D008215DF0E4F8AA
:1034A00082235B00E058002802D008215DF0DCF8A0
:1034B00084235B00E058002802D008215DF0D4F896
:1034C00086235B00E058002802D008215DF0CCF88C
:1034D00088235B00E058002802D008215DF0C4F882
:1034E0008A235B00E058002802D008215DF0BCF878
:1034F0008C235B00E058002802D008215DF0B4F86E
:103500008E235B00E058002802D008215DF0ACF863
:1035100090235B00E058002802D008215DF0A4F859
:1035200092235B00E058002802D008215DF09CF84F
:1035300094235B00E058002802D008215DF094F845
:1035400096235B00E058002802D008215DF08CF83B
:1035500098235B00E058002802D008215DF084F831
:103560009A235B00E058002802D008215DF07CF827
:103570009C235B00E058002802D008215DF074F81D
:103580009E235B00E058002802D008215DF06CF813
:10359000A0235B00E058002802D008215DF064F809
:1035A000A2235B00E058002802D008215DF05CF8FF
:1035B000A4235B00E058002802D008215DF054F8F5
:1035C000A6235B00E058002802D008215DF04CF8EB
:1035D000A8235B00E058002802D008215DF044F8E1
:1035E000AA235B00E058002802D008215DF03CF8D7
:1035F000AC235B00E058002802D008215DF034F8CD
:10360000AE235B00E058002802D008215DF02CF8C2
:10361000B0235B00E058002802D008215DF024F8B8
:10362000B2235B00E058002802D008215DF01CF8AE
:10363000B4235B00E058002802D008215DF014F8A4
:10364000B6235B00E058002802D008215DF00CF89A
:103650002000FFF7C9FB10BDF0B50400C6462100ED
:10366000242200B5043028315CF0E8FF4B4D2B7864
:10367000BFF35B8FDB0700D47CE0494E3368002B3F
:1036800009D02B78BFF35B8FDB0700D47CE0306878
:1036900003681B6B9847BC235B00E358DA79002A68
:1036A0002BD12832A15C5A7A002A19D0E022A258E4
:1036B0000D005768E422A258FEB25268100008407C
:1036C000310084462800D2B211438843C1B22F4250
:1036D00001D01143C9B22822A1546246002A2DD13B
:1036E000DA7B002A31D1587904283AD001F046F823
:1036F0002823E05480BCB846F0BD2822A55C904643
:10370000C032A2582E005768EC22A258F8B2526874
:10371000110029408C460100D2B211438E43310082
:103720002F4201D01143C9B24246A1546246002A39
:10373000B9D028220143C9B2A154B4E728223143A9
:10374000C9B2A154DA7B002ACDD0080001F004F8F8
:103750002823E0545133FF33E358010058790428FB
:10376000C4D15B780E2BC1D80E4ADA40D307BDD541
:103770000338BBE728007DF0B1FB002800D17CE7CF
:1037800028007DF0C7FB78E728007DF0A7FB002824
:1037900000D17CE728007DF0BDFB78E7944C002049
:1037A00038E50020964000000122F8B51700C34E0E
:1037B00004003378BFF35B8F1F401A4200D154E1FD
:1037C000BF4D280017F090FCB823BE4E5B00C558D3
:1037D0003378BFF35B8FDB0700D43CE1BA4F3B6823
:1037E000002B00D135E13378BFF35B8FDB0700D4CA
:1037F00051E1386803681B6B9847B0235B00E258BF
:1038000000231168294200D093882386E023E258E0
:1038100000231168294200D01379E422A2581168CC
:10382000294201D012791343E822A2581168294293
:1038300001D012791343EC22A2581168294201D019
:10384000127913432822A354F023E1580A68130085
:103850002B402A4200D04B68F422A258116829421A
:1038600001D052681343F822A2581168294201D0AE
:1038700052681343FC22A2581168294201D05268B1
:10388000134380225200A2581168294201D0526885
:10389000134382225200A2581168294201D0526873
:1038A000134384225200A2581168294201D0526861
:1038B000134386225200A2581168294201D052684F
:1038C000134388225200A2581168294201D052683D
:1038D00013438A225200A2581168294201D052682B
:1038E00013438C225200A2581168294201D0526819
:1038F00013438E225200A2581168294201D0526807
:10390000134390225200A2581168294201D05268F4
:10391000134392225200A2581168294201D05268E2
:10392000134394225200A2581168294201D05268D0
:10393000134396225200A2581168294201D05268BE
:10394000134398225200A2581168294201D05268AC
:1039500013439A225200A2581168294201D052689A
:1039600013439C225200A2581168294201D0526888
:1039700013439E225200A2581168294201D0526876
:103980001343A0225200A2581168294201D0526864
:103990001343A2225200A2581168294201D0526852
:1039A0001343A4225200A2581168294201D0526840
:1039B0001343A6225200A2581168294201D052682E
:1039C0001343A8225200A2581168294201D052681C
:1039D0001343AA225200A2581168294201D052680A
:1039E0001343AC225200A2581168294201D05268F8
:1039F0001343AE225200A2581168294201D05268E6
:103A00001343E362B2235B00E3581B682B420AD0E6
:103A1000BE2300225B00E25400236086A086E0867D
:103A200020876387F8BDB4235B00E3581B682B42F3
:103A300004D0BE2301225B00E254EDE7B6235B0015
:103A4000E3581B682B4230D0BE2302225B00E254B5
:103A5000E2E71E48D1E630007DF040FA002800D1B0
:103A6000BCE630007DF056FAB8E630007DF036FA5C
:103A7000134D002800D1A4E6154BA222EF50154BA0
:103A800000212F706F60AF60E8185CF0D1FD30004E
:103A90007DF040FA95E630007DF020FA002800D154
:103AA000A7E630007DF036FAA3E6BC235B00E358BE
:103AB000DA78BE235B00E254AEE7C046A84C002093
:103AC00040E60020944C002038E50020FF7F0000F5
:103AD0009440000098400000012270B51600104D7F
:103AE0002B78BFF35B8F1E401A4204D00D4C200090
:103AF00016F0E4FC70BD28007DF0F0F9094C0028B8
:103B0000F5D0094BA222E650084B002126706660D2
:103B1000A660E0185CF08CFD28007DF0FBF9E6E77C
:103B2000A84C002040E6002094400000984000008F
:103B3000F8B504002A2929D8CB4B89005B589F4649
:103B4000C2235B00C35C122B20D001221700C74E9A
:103B50003378BFF35B8F1F401A4200D1D6E1C44DCA
:103B60000421280017F0BEF900280FD0BA23012243
:103B70005B00E254012214003378BFF35B8F1C40DA
:103B80001A4200D1ADE1280016F098FCF8BD802360
:103B9000C26A9B011343C362F8E78023C26A5B01D8
:103BA0001343C362F2E72023C26A1343C362EDE703
:103BB0001023C26A1343C362E8E70823C26A1343AF
:103BC000C362E3E70423C26A1343C362DEE702234E
:103BD000C26A1343C362D9E70123C26A1343C362B3
:103BE000D4E7002017F0BAFDD0E78023C26A1B019A
:103BF0001343C362CAE78023C26ADB001343C36274
:103C0000C4E7C2235B00C35C112BBFD001221700A5
:103C1000964E3378BFF35B8F1F401A4200D18BE181
:103C2000934D0321280017F05DF900289ED1ADE7E0
:103C3000C2235B00C35C102BA8D0012217008B4E5F
:103C40003378BFF35B8F1F401A4200D18AE1884D61
:103C50000221280017F046F9002800D086E795E7F2
:103C6000C2235B00C35C0F2B00D18FE7012217003A
:103C70007E4E3378BFF35B8F1F401A4200D187E13D
:103C80007B4D0121280017F02DF9002800D17DE798
:103C90006CE7C2235B00C35C0E2B00D176E70122E8
:103CA0001400724E3378BFF35B8F1C401A4200D170
:103CB00084E16F4D01216F4AAB5C4B40AB5459E737
:103CC0008023C26A5B001343C3625FE7C2235B00C9
:103CD000C35C0C2B00D159E7BC2304225B00C35802
:103CE000624E634D5A7145E78023C26A9B001343BD
:103CF000C3624BE7C2235B00C35C0D2B00D145E7D9
:103D0000BC2301215B00C258584ED37B584D4B4019
:103D1000D3732FE728220121835C0B43835435E7BB
:103D20008023C26A1B021343C3622FE728220221A9
:103D3000835C0B43835429E78023C26ADB0113436E
:103D4000C36223E78023C26A1343C3621EE7402392
:103D5000C26A1343C36219E728220821835C0B431C
:103D6000835413E728220421835C0B4383540DE71B
:103D7000C2235B00C35C2A2B00D107E70122170096
:103D80003A4E3378BFF35B8F1F401A4200D12BE1CC
:103D9000374D280017F0EEF8E8E6C2235B00C35C5D
:103DA000032B00D1F2E6BC2302225B00C3582F4E46
:103DB0002F4DDA70DEE6C2235B00C35C012B00D11D
:103DC000E4E6BC2300225B00C358284E284DDA707D
:103DD000D0E6C2235B00C35C072B00D1D6E6BC2330
:103DE00001225B00C358214E214D5A71C2E6C22305
:103DF0005B00C35C062B00D1C8E6BC2300225B003D
:103E0000C3581A4E1A4D5A71B4E6C2235B00C35C04
:103E10000B2B00D1BAE6BC2303225B00C358134E20
:103E2000134D5A71A6E6C2235B00C35C0A2B00D176
:103E3000ACE6BC2301215B00C2580C4E537A0C4DFA
:103E40004B40537296E6C2235B00C35C092B00D142
:103E50009CE6BC2301215B00C258044ED379044D7B
:103E60004B40D37186E6C04680450810A84C002020
:103E700040E600206D110000C2235B00C35C082BEC
:103E800000D183E6BC2302225B00C3586C4E6D4D0B
:103E90005A716FE6C2235B00C35C232B00D175E629
:103EA00001221700664E3378BFF35B8F1F401A4222
:103EB00000D1AFE0634D280017F036F8BA23012295
:103EC0005B00E25456E6C2235B00C35C022B00D1C8
:103ED0005CE6BC2301225B00C358594E594DDA7091
:103EE00048E630007CF0FAFF002800D14BE6564B44
:103EF000A222EC50554B00212C706C60AC60E8188D
:103F00005CF096FB30007DF005F83CE630007CF07C
:103F1000E5FF4C4D002800D122E64B4BA222EF508A
:103F20004A4B00212F706F60AF60E8185CF080FB97
:103F300030007CF0EFFF13E630007CF0CFFF414D06
:103F4000002800D16DE6404BA222EF503F4B0021EC
:103F50002F706F60AF60E8185CF06AFB30007CF097
:103F6000D9FF5EE630007CF0B9FF364D002800D165
:103F70006EE6354BA222EF50344B00212F706F605C
:103F8000AF60E8185CF054FB30007CF0C3FF5FE6E4
:103F900030007CF0A3FF2B4D002800D171E62A4BA6
:103FA000A222EF50294B00212F706F60AF60E818FC
:103FB0005CF03EFB30007CF0ADFF62E630007CF050
:103FC0008DFF204D002800D174E61F4BA222EC503B
:103FD0001E4B00212C706C60AC60E8185CF028FB74
:103FE00030007CF097FF65E630007CF077FF154DE0
:103FF000002800D1CDE6144BA222EF50134B002134
:104000002F706F60AF60E8185CF012FB30007CF03E
:1040100081FFBEE630007CF061FF0A4D002800D130
:1040200049E7094BA222EF50084B00212F706F6027
:10403000AF60E8185CF0FCFA30007CF06BFF3AE708
:10404000A84C002040E6002094400000984000006A
:10405000F0B5D6464F464646BC23C0B55B00C358B4
:1040600005005B7B002B00D0C0E08133FF33C358D9
:104070005C7B002C06D01A69C16A1000084090428F
:1040800000D1D4E029229C5C002C06D0DA6AE96ACF
:1040900010000840904200D1DDE045229C5C002CDD
:1040A00006D0E96A9A6C08001040824200D1E6E02E
:1040B00061229C5C002C06D05A6EE96A1000084010
:1040C000904200D1FAE07D229C5C002C07D00332A4
:1040D0009A58E96A10000840904200D103E1992201
:1040E0009C5C002C07D003329A58E96A1000084003
:1040F000904200D10CE1B5229C5C002C07D0033229
:104100009A58E96A10000840904200D11BE1D12280
:104110009C5C002C07D003329A58E96A10000840D2
:10412000904200D124E1ED229C5C002C07D00332A8
:104130009A58E96A10000840904200D12DE10A2205
:10414000FF329C5C002C07D003329A58E96A1000B9
:104150000840904200D135E12622FF329C5C002CC1
:1041600007D003329A58E96A10000840904200D103
:104170003FE14222FF329C5C002C07D003329A5868
:10418000E96A10000840904200D149E15E22FF3206
:104190009C5C002C07D003329A58E96A1000084052
:1041A000904200D153E17A22FF329C5C002C22D154
:1041B0009622FF329C5C002C07D003329A58E96AA1
:1041C00010000840904200D158E1B222FF329C5CBE
:1041D000002C08D003329A58E96A10000840904237
:1041E00000D162E10024C2235B00EC54E0BCBA467B
:1041F000B146A846F0BD03329A58E96A100008405B
:104200009042D5D12826BA22B246AE5D5200370080
:104210009A5CB1461740BA42CAD1C2277F00DF5B21
:10422000B84646462F8E3740B845C1D184E028268F
:104230001A7AB1461700AE5D3740BC46974200D0AF
:1042400020E71A8B904647462A8E3A40424500D0D6
:1042500018E7814328E05A6AD2B294462822AE5C1D
:1042600091465A6A3240944500D016E79A8E90469D
:1042700047462A8E3A40904500D00EE7E9E7186C91
:10428000C0B2844628202E5C8146186C304084459C
:1042900000D00DE7186D1F6D80B28046288E384023
:1042A000804500D004E7914363469E434B46E96254
:1042B000EE5421002800FFF73BFC94E7DA6DD2B200
:1042C00094462822AE5C9146DA6D3240944500D087
:1042D000F9E6DA6EDF6E92B290462A8E3A40904549
:1042E00000D0F0E6B5E79A6FD2B294462822AE5CD1
:1042F00091469A6F3240944500D0F0E688229A5A4F
:10430000904647462A8E3A40904500D0E7E6A0E71F
:1043100028269422B246AE5D9A5C3700B14617401B
:10432000BA4200D0E7E6A427DF5BB84646462F8EA8
:104330003740B84500D0DEE64E46534681439643AB
:10434000E962EE54B5E72826B022B246AE5D9A5C2B
:104350003700B1461740BA4200D0D8E6C027DF5B2D
:10436000B84646462F8E3740B84500D0CFE6E3E743
:104370002826CC22B246AE5D9A5C3700B146174083
:10438000BA4200D0CFE6DC27DF5BB84646462F8E28
:104390003740B84500D0C6E6CEE72826E822B24628
:1043A000AE5D9A5C3700B1461740BA4200D0C6E60F
:1043B000F827DF5BB84646462F8E3740B84500D019
:1043C000BDE6B9E728268222B246AE5D520037002C
:1043D0009A5CB1461740BA4200D0BDE68A277F00FA
:1043E000DF5BB84646462F8E3740B84500D0B3E66F
:1043F000A2E728269022B246AE5D520037009A5CB2
:10440000B1461740BA4200D0B3E698277F00DF5B81
:10441000B84646462F8E3740B84500D0A9E68BE710
:1044200028269E22B246AE5D520037009A5CB14605
:104430001740BA4200D0A9E6A6277F00DF5BB84646
:1044400046462F8E3740B84500D09FE674E72826B1
:10445000AC22B246AE5D520037009A5CB1461740BE
:10446000BA4200D09FE6B4277F00DF5BB8464646DD
:104470002F8E3740B84500D095E65DE72826C82244
:10448000B246AE5D520037009A5CB1461740BA4260
:1044900000D09AE6D0277F00DF5BB84646462F8ED5
:1044A0003740B84500D090E646E72826D622B046E9
:1044B000AE5D520037009A5C1740BA4200D091E6D8
:1044C000DE277F00DB5B9C4667462B8E3B409C458E
:1044D00000D087E6434681439643E962EE54E8E61E
:1044E00030B5174A8FB0136801331360012B08D120
:1044F0000122144B52421A6000225A609A60DA601C
:104500001A61114A136801331360012B01D00FB0F7
:1045100030BD38220D4968465CF090F800230C4C01
:10452000382023606360A3605CF08EF805003822B9
:10453000383569462060A5605CF080F86560E6E784
:10454000844C00206C4C0020804C00202C4608102D
:104550009435012070B5064D2C68AC4206D0200081
:1045600024680C215CF080F8AC42F8D170BDC046E4
:104570000CD700200C2370B51840042817D0082849
:1045800013D0164C2378BFF35B8FDB0711D5144D86
:104590002B68002B1FD02378BFF35B8FDB0711D56F
:1045A000286803681B6B984700E00E4870BD002028
:1045B000FCE720007CF092FC0028E8D020007CF092
:1045C000A9FCE4E720007CF089FC0028E8D020006A
:1045D0007CF0A0FCE4E70448E8E7C046944C0020E7
:1045E00038E50020FFFF0000FF7F0000032370B5C7
:1045F0001840012817D0022813D0164C2378BFF397
:104600005B8FDB0711D5144D2B68002B1FD023784F
:10461000BFF35B8FDB0711D5286803681B6B9847D6
:1046200000E00E4870BD0020FCE720007CF056FC46
:104630000028E8D020007CF06DFCE4E720007CF04E
:104640004DFC0028E8D020007CF064FCE4E704483E
:10465000E8E7C046944C002038E50020FFFF00004A
:10466000FF7F0000024B1B18013B18787047C046C3
:10467000644608100122F8B54746CE460E001100E8
:1046800080B5304F04003B78BFF35B8F19408846FC
:104690001A4238D02C4D2D4FBB19013B1B782342B9
:1046A0000FD02B4CA35D002B3ED02C68AC4228D001
:1046B0006B681B7AFF18013F3878C0BCB946B0461A
:1046C000F8BD234B99469B5D002BEED02C68AC4285
:1046D00012D0A04643461B7A2468B34209D1AB6886
:1046E0004046013BAB607CF001FD0C2140465BF095
:1046F000BBFFAC42EDD1246800234A469355AC423F
:10470000D6D10020D9E738007CF0E8FB0E4D002818
:10471000C1D043466D602D60AB600E487EF0D4FB87
:1047200038007CF0F7FBB6E70C205BF08DFF29002A
:1047300006727CF0D3FCAB680133AB600123A35558
:10474000B3E7C046884C00200CD700206446081010
:1047500004D700205545001010B504000121FFF7D3
:1047600089FF02212000FFF785FF03212000FFF7CA
:1047700081FF04212000FFF77DFF10BD30B504004C
:104780000800042C19D003230B40022B2DD0032B3F
:1047900034D0012B41D00022454B08201A7004254B
:1047A00000230C220A40082A1BD00C2A0CD0042A11
:1047B00005D0002118003F4A117030BD05250322A5
:1047C0003C4B1A702800F8E7022C47D0032C61D12B
:1047D000384A1178002959D1180000231370ECE7EA
:1047E00009200422334B1A70E7E7314A0A2013707C
:1047F0000C2206250A40082AD7D1F2E7002C15D151
:1048000001220C212A4B08401A700828E8D00C28F5
:1048100043D00428D2D00123CBE7254A09201370C6
:104820000C2205250A40082ABFD1DAE7204A022CCB
:1048300006D0032C1AD00023082004251370B0E7FB
:104840001378002BF7D0012B2AD00920052501234E
:104850000C220A40082AC4D00C2AA8D1154A117883
:104860000029B9D00329A8D02800A6E71378002B87
:10487000E1D0012B18D00A20062502230C220A4081
:10488000082AAED00C2A00D091E7A1E7032900D076
:1048900093E797E71800074A9FE70120054A9CE73E
:1048A00002230A200625D3E709200525E6E7C046AE
:1048B00082DC012081DC01207047C04640687047DF
:1048C000044B10B51868002803D09968091A5BF0EA
:1048D000CBFE10BD44E50020F8B50D00046841682A
:1048E00006008C4212D00A4F02E00434A1420DD0DF
:1048F00023681A79AA42F8D118680368DB69BB42B9
:10490000F3D0984771680434A142F1D1F8BDC04694
:10491000B9480010F8B54568046807000E00AC42BD
:1049200006D023681A79B24203D00434A542F8D1E4
:10493000F8BD1868043403685B6998477D68A54230
:10494000EFD1F5E7F8B54568046807000E00AC4202
:1049500006D023681A79B24203D00434A542F8D1B4
:10496000F8BD1868043403681B6998477D68A54240
:10497000EFD1F5E7F8B5574645464E46DE460368A3
:10498000E0B547689246344A9946FB1A05008846C6
:104990009B1093425CD00126002B02D05E00B342F4
:1049A00050D843464A469C1A002E1BD100239B46F2
:1049B00052465B4612681A51002C23DC43460434ED
:1049C0005C44FF1A002F30DC4B46E719002B35D131
:1049D0005B466F60AE602B60F0BCBB46B246A9463A
:1049E000A046F8BD80239B059E422FD2B600300022
:1049F0005BF02AFE834652465B4612685E441A51BB
:104A0000002CDBDD2200494658467FF061FB43461F
:104A100004345C44FF1A002F07DC4A46AB68E719F0
:104A2000991A48465BF020FED2E73A004146200042
:104A30005BF004FE4B46E719002BC9D04A46AB6831
:104A4000991AEEE74A46054E8C1AD0E7024ECDE79A
:104A500003487CF083FCC046FFFFFF1FFCFFFF7F85
:104A600068460810F0B50B6806009B68080083B024
:104A70000C0017009847051E06D1236820005B68CC
:104A80009847280003B0F0BD08205BF0DDFD2368E7
:104A90000190DB6820009847019B7168B2681C6038
:104AA0001F71914202D008C17160EAE7300001AA8B
:104AB000FFF760FFE5E7C046F0B5C64600B50B68F6
:104AC00006009B68080082B00C0017009847051E7E
:104AD00008D1236820005B689847280002B080BC9A
:104AE000B846F0BD08205BF0AFFD23680190DB689D
:104AF00020009847019B7168B2681C601F71914249
:104B00002CD008C1716001221100174E3378BFF319
:104B10005B8F194088461A420AD0144F2368144A02
:104B20001B6A934216D16168380017F057F8D4E732
:104B300030007CF0D3F90D4F0028EFD043460D48EC
:104B40003B607B60BB603B617EF0BEF930007CF077
:104B5000E1F9E3E7200098470100E5E7300001AA0A
:104B6000FFF708FFCFE7C0469C4C002044E500203B
:104B7000BD480010C148001070B505000C1E01D0E2
:104B80002C7070BD04205BF05FFD0600024B0360DB
:104B90002FF022FC6E60F3E740DE081010B540688D
:104BA00003685B68984710BD30B5174A8FB013682B
:104BB00001331360012B08D10122144B52421A60B9
:104BC00000225A609A60DA601A61114A1368013350
:104BD0001360012B01D00FB030BD38220D4968465B
:104BE0005BF02CFD00230C4C382023606360A36035
:104BF0005BF02AFD05003822383569462060A56043
:104C00005BF01CFD6560E6E7844C00206C4C0020E6
:104C1000804C00208446081094350120F0B557469A
:104C20004546DE464E469246274AE0B593468A26DA
:104C30008C221F00431E5A434E43B5185D446B89B6
:104C40000400904685B0BB4209D2002399464846ED
:104C500005B0F0BCBB46B246A946A046F0BD5CF02C
:104C60007FF82979814603002000002B28D05DF0D1
:104C7000B5F9297981460029E7D00028E5D120003F
:104C80005DF000F903900028DFD04C3646445E44C6
:104C90003A00514630005BF0D1FC4B462979320096
:104CA0000193009320003B005DF034F98146002819
:104CB000CDD1200029795DF009F9039B9946C6E71B
:104CC0005DF08CF9C3E7C046F05000208C2210B58F
:104CD0000021034892005BF0ABFC012010BDC046F0
:104CE000F0500020F0B50500C6468C246A1E00B5C1
:104CF0005443204E82B03419E778C8098F4235D02A
:104D00002479611A4C1EA1414942C9B20F00012801
:104D100012D0194800280AD08C208A2442437C43B0
:104D20004C32121928009BB2B21817F0D9F90120A1
:104D300002B080BCB846F0BD8C245443A04620008D
:104D40008A247C430C300719F7193A0028009BB2DB
:104D500017F084F90022444436193389F178280089
:104D6000019200923A005DF0D5F8E0E700270021BB
:104D7000CDE7C046F0500020E1C00110F0B5C646B6
:104D8000050000B504281AD88C26431E5E430D4F3B
:104D9000BB1998460C4B002B0CD0BB5D002B09D0E7
:104DA00000242100280017F029F90134BB5DE4B28A
:104DB000A342F6D88C22002140465BF039FC80BC2F
:104DC000B846F0BDF0500020FDBF0110F0B55746C9
:104DD0004E46DE464546E0B553790F00160085B0D5
:104DE000FF2B09D0032B07D0002005B0F0BCBB4639
:104DF000B246A946A046F0BD7B1E9B468C235A4670
:104E00005A435A4B91461C004C449A46E378002B77
:104E1000EAD12379002BE7D1B3795D2B39D0472B29
:104E2000E2D1F379D02BDFD13379002BDCD0013BF9
:104E3000DBB29846350013E022716B7929791B02A9
:104E40000B435B055B0D2900380063815DF09EF824
:104E50000028C9D04346013BDBB29846FF2B5BD00C
:104E60002B78ED186B78052BBED10223EB56AA7870
:104E7000002BE1DAE2706B7929791B020B435B05A9
:104E80005B0D2900380023815DF080F80028E1D116
:104E9000AAE7F379013B022BA6D83378F5180395DE
:104EA0006B78212BA0D133795A1ED2B29046002BB9
:104EB0000DD11FE02900380023715DF067F800284C
:104EC00092D04346013BDBB29846FF2B12D02B78A1
:104ED000ED186B78052B00D086E70222AA56AB7836
:104EE000002AE7DA29003800E3705DF04FF8002867
:104EF000E7D179E78C215A465143B37851448B70FE
:104F000001234B71F379012B20D0534652461B7875
:104F100001200133137068E75A468C215143B3785E
:104F200051448B7002234B71534652461B7800202C
:104F3000013313704A460C320B895244C9780190F0
:104F4000009038005CF0E6FF01204EE74A46002062
:104F5000039B0C321B7952448B710B89C9780190E9
:104F6000009038005CF0D6FFCFE7C046F05000203C
:104F70008C23421E70B55A430B4C0500A3189B7836
:104F8000591A4B1E99418A234942C9B24B439B1877
:104F9000E418A379627916F0EFFF2800A1785DF09C
:104FA00099F9012070BDC046F050002070B5042270
:104FB0000021040000255BF03BFB00230D4AA58087
:104FC000E58025816581A581E58123742000A354B6
:104FD00080220021D20054305BF02AFB2000064BD7
:104FE0004022E552002111305BF022FB52232000C9
:104FF000E55270BD560400005404000070B5042250
:105000000021040000255BF013FB00230D4AA5805E
:10501000E58025816581A581E58123742000A35465
:1050200080220021D20054305BF002FB2000064BAE
:105030004022E552002111305BF0FAFA5223E5528A
:1050400070BDC0465604000054040000F0B5C646CA
:1050500004000D0000B5032A64D952270E78C2530C
:10506000012E57D04B7804227F2B31D800215BF0E2
:10507000DFFA002600236C4AA680E680268166813E
:10508000A681E6812374A35454239846A0440021AA
:10509000563A40465BF0CCFA2000644B4022E65280
:1050A000002111305BF0C4FAE653042229002000ED
:1050B0005BF0C4FAE678002E61D1012200205B4B40
:1050C000B6B2E680E652584BE25480BCB846F0BD1A
:1050D0005BF0B4FAE278002A46D063785B0661D4CC
:1050E0002389E088D31896B2238154303A2A02D912
:1050F00080235A4096B22018A91D5BF09FFA012226
:10510000E3880020F618E389E6800133E381464B0B
:10511000E254DAE70D2A05D14B789B0602D5CB780D
:10512000092B32D00422002120005BF081FA0025F7
:10513000002320003C4A23740021A580E5802581BE
:105140006581A581E5815430A354563A5BF070FA2D
:105150002000364B4022E552002111305BF068FA06
:1051600052230020E552B0E76B792879A1881B0211
:105170000343994210D02C4B0020E254A5E73200A3
:105180004046291D5BF05AFA97E7093A5BF056FA58
:10519000254B0120E65498E70123234A237401207C
:1051A000A35492E70422002120005BF041FA00267C
:1051B000002320001C4A23740021A680E68026815B
:1051C0006681A681E6815430A354563A5BF030FAEA
:1051D0002000164B40220021E65211305BF028FAE5
:1051E000042229002000E6535BF028FAE2783A2AEC
:1051F0000AD92B79002B07D16B79A3800B4996B282
:1052000063525420268171E76B7929791B020B4385
:105210008021A38049008B42F0D9013BFF3B9BB228
:10522000190AC9015B1AE9E756040000540400009A
:10523000007C7047014BC05C7047C04656040000BC
:1052400082705A0120231340102230B504AD2D780E
:1052500003AC2D012A4013434F222478017041787A
:10526000E40123430A401343437030BDC02370B5AB
:105270009B010500140000209A4206D828005430F3
:105280005BF0DCF90120014BEC5270BD54040000CE
:10529000F0B5DE4657464E464546E0B54378040035
:1052A00085B07F2B00D87FE0C2899246002A58D073
:1052B000AD4A8789825A9046974200D13BE140220D
:1052C0009343437001235344180005219B4658F033
:1052D00095FD6378002900D0CAE010221343637063
:1052E0004346DB1B392B00DCF8E03B003A223A3323
:1052F0009BB298463A239146019306330393063BAB
:1053000002936589FF2D00D9CBE08022260052420E
:1053100013431136E3702100843230005BF08EF9C4
:10532000390020005431029A611817305BF086F979
:105330005223039AE2522B0000226275019AEDB2C9
:10534000A5759A18FF2B00D987E0802A00DC84E03D
:105350004B440133FF3363814346A3815B46E381C2
:1053600037E0814A815A39293BD94022134343709F
:1053700000220B000AE03B32FF3292B23A3B9BB272
:10538000002B00D1C2E0392B00D8B6E0100047381E
:105390007E28F0D915003A35100A2E12B04200D1FD
:1053A0007AE0BA3292B2E9E706006F4D1136475BF8
:1053B00001000422C77030005BF040F9200021009A
:1053C0003A00153054315BF039F95222635B0433F3
:1053D000A352300005B0F0BCBB46B246A946A04679
:1053E000F0BD3F2213404370838981801D00CB1A9A
:1053F0009AB2102091466278CA46024362704A46C9
:105400008846971DDBB2BFB201923B39442960D870
:105410008022260052421343E37011368432210069
:1054200030005BF00BF9290020005431524661181E
:1054300017305BF003F9012252239346E752638948
:10544000A588FF2D00D877E7EAB26275019A2D0A88
:10545000A5759A18FF2B00D877E7190A89B212129E
:105460008A421BDD8022494611435B18638173E742
:105470001022934363704346DB1B392B2EDD3B0028
:105480003A339BB298463A230193063303932A3268
:10549000063B9146029334E7AAB26FE74B4463811F
:1054A0005AE726001136E3700422210030005BF039
:1054B000C5F8390020005431029A611817305BF0AA
:1054C000BDF85223039AE25252462B00002ABBD168
:1054D000B6E726000422E3701136A0E79AB2102145
:1054E00091466278DBB20A4362704A460292063203
:1054F00092B203924A46019203E7D518100A2E127F
:10550000B0422ED080200343D21892B2A280102243
:105510006378A589134363704A1B2B00392A00DC8A
:1055200065E73A339BB298463A223A2340279A4697
:105530009146019369E710220600934343700023CC
:105540001136C37001000C3A30005BF077F8A38885
:10555000062263751B0AA3755223E252513B237442
:1055600037E7AAB2D2E7C04654040000012382788C
:105570004374C27409221F338374C375002382826B
:105580000278438382754378C28802837F2B08D8D0
:1055900000220023427703770D225223C25211309A
:1055A0007047034BC35A9B1A9AB2120ADBB2F1E757
:1055B000540400005223C05C7047C0464078C006C7
:1055C000C00F7047007870474078C0097047C046E8
:1055D0008078704754307047014BC05A7047C046BE
:1055E000540400004078C006C00F70477047C046A2
:1055F0007047C04600207047030010B504000A4AF7
:10560000643303CA03C320220021201D5BF010F87D
:10561000064BA360064B2361064B6361064BA361F7
:10562000064BE36110BDC046E84608103D5B06101E
:10563000555B0610695B0610495C0610555E061046
:105640007047C04600207047004870470847081060
:10565000004870471C4708100048704798470810DA
:105660000020704700487047FF7F0000010010B520
:105670000822180064315AF0E1FF082010BDC0462E
:105680007F23672270B5835401328354573BCA5C31
:10569000193B040013400A2B06D8434A9B00D358F9
:1056A0009F4668230022C254CA6AD3073CD42F23E2
:1056B0000F21900700D40B00510702D580210B4326
:1056C0001BB2110702D510210B431BB2910603D563
:1056D000802149000B431BB2110603D580218900AC
:1056E0000B431BB2D10503D5802149010B431BB2EB
:1056F000920503D58022920113431BB269219AB20D
:105700006354130A2200693253705FF061FB002872
:1057100020D12500243464350822290020007EF0A1
:10572000DFFB002803D170BD6F234F21C1E70020AC
:1057300060F0A6F90028F6D008232A0000210020F6
:1057400060F0BAF90028EED00822290020005AF0B3
:1057500075FFE8E75FF044FBDBE76823FF22C254F4
:10576000A2E767230022C2549EE7002367228354E6
:105770000132835498E767230022C2540133FF3279
:10578000C25491E76723FF22C2548DE76723FF22AB
:10579000C25400220133C25486E7FF236722835498
:1057A0000132835480E7C046BC460810154B8A007E
:1057B00070B5D558002906D1C12413482B78A40010
:1057C0004380048070BD28007DF0FEFF002816D0C5
:1057D00004007F2811D8002200230B48AA5C013363
:1057E0005900DBB242521A009C42F7D8C023013460
:1057F00064009B001C43A4B2E3E77F24EBE7034C67
:105800000148DEE78447081030D70020020300007B
:105810007047C0467047C0460020704710B504006E
:10582000094B20221B680021436604305AF000FF18
:10583000064BA360064B2361064B6361064BA361D5
:10584000064BE36110BDC046304808103D5B0610B2
:10585000555B0610695B0610495C0610555E061024
:105860007047C046002070470048704754480810F1
:10587000004870476848081000487047B048081052
:105880000020704700487047FF7F0000010010B5FE
:105890000422180064315AF0D1FE042010BDC04625
:1058A000F8B52823CA5C193B040013400A2B3ED8E4
:1058B0003F4A9B00D3589F46012266235242C25260
:1058C000012637000823CA6A5007C00F010217409B
:1058D000950750093F01ED0F0640AD003E433543AB
:1058E000134029430B43110601D502210B43D10577
:1058F00001D580210B43910501D540210B43D204F2
:1059000002D58022920013436422A3525FF060FA12
:1059100000283BD125002434643522782B789A4224
:1059200027D0002060F0ACF8002832D1F8BD662303
:10593000204AE252C4E7812266235242C252BFE7A4
:10594000FE226623D201C252BAE766230022C25267
:10595000B6E76623184AC252B2E76623174AC25214
:10596000AEE76623FF22C252AAE766237F22C25215
:10597000A6E762786B789A42D3D1A278AB789A4244
:10598000CFD1E278EB789A42CBD1CFE75FF028FA1B
:10599000C0E704232A000021002060F08DF80028D1
:1059A000C4D00422290020005AF048FEBEE7C046B9
:1059B000044808107F7F000000FFFFFFFF7F00000A
:1059C000154B8A0070B5D558002906D1C12413485B
:1059D0002B78A4004380048070BD28007DF0F4FE85
:1059E000002816D004007F2811D8002200230B487D
:1059F000AA5C01335900DBB242521A009C42F7D82C
:105A0000C023013464009B001C43A4B2E3E77F245D
:105A1000EBE7034C0148DEE79C48081030D8002033
:105A2000020300007047C0467047C0460020704720
:105A3000002310B543660B4B802283666C23040061
:105A4000C2540021603A04305AF0F2FD064BA360C4
:105A5000064B2361064B6361064BA361064BE36172
:105A600010BDC046088080803D5B0610555B061067
:105A7000695B0610A95A0010555E06107047C046B3
:105A8000002070470048704764490810004870477C
:105A90007849081000487047E04908100020704716
:105AA000802000027047C04610B560F0CDF810BDF0
:105AB000010010B50922180064315AF0BFFD092019
:105AC00010BDC046282370B5CA5C193B04001340C2
:105AD0000A2B00D9C6E08D4A9B00D3589F46682206
